{
  "transactions": [
    {
      "hash": "0xfd6ba20bee875786474bb696d55fccf5ca0bab01c9490a4b0c10a2e190d49bbe",
      "transactionType": "CALL",
      "contractName": null,
      "contractAddress": "0xc55D1F988F22DF864eaa4E9940a0a340e1e06CcD",
      "function": "mint(uint64,address,uint8)",
      "arguments": [
        "12532609583862916517",
        "0x79f21D75Dd65a42E6083d5117174b1704B804BD8",
        "0"
      ],
      "transaction": {
        "type": "0x02",
        "from": "0x79f21d75dd65a42e6083d5117174b1704b804bd8",
        "to": "0xc55d1f988f22df864eaa4e9940a0a340e1e06ccd",
        "gas": "0x38dc5",
        "value": "0x0",
        "data": "0xec99afa2000000000000000000000000000000000000000000000000adecc60412ce25a500000000000000000000000079f21d75dd65a42e6083d5117174b1704b804bd80000000000000000000000000000000000000000000000000000000000000000",
        "nonce": "0x7",
        "accessList": []
      },
      "additionalContracts": [],
      "isFixedGasLimit": false
    }
  ],
  "receipts": [
    {
      "transactionHash": "0xfd6ba20bee875786474bb696d55fccf5ca0bab01c9490a4b0c10a2e190d49bbe",
      "transactionIndex": "0x0",
      "blockHash": "0xb06bee2d883d7e0f07b46d358f93e8742b81221a3ccc031e6463fb095e82ca7c",
      "blockNumber": "0x1c58fe6",
      "from": "0x79f21D75Dd65a42E6083d5117174b1704B804BD8",
      "to": "0xc55D1F988F22DF864eaa4E9940a0a340e1e06CcD",
      "cumulativeGasUsed": "0x2bbcd",
      "gasUsed": "0x2bbcd",
      "contractAddress": null,
      "logs": [
        {
          "address": "0xd00ae08403B9bbb9124bB305C09058E32C39A48c",
          "topics": [
            "0xe1fffcc4923d04b559f4d29a8bfc6cda04eb5b0d3c460751c2402c5c5cc9109c",
            "0x000000000000000000000000f694e193200268f9a4868e4aa017a0118c9a8177"
          ],
          "data": "0x000000000000000000000000000000000000000000000000001a74b0284e75e2",
          "blockHash": "0xb06bee2d883d7e0f07b46d358f93e8742b81221a3ccc031e6463fb095e82ca7c",
          "blockNumber": "0x1c58fe6",
          "transactionHash": "0xfd6ba20bee875786474bb696d55fccf5ca0bab01c9490a4b0c10a2e190d49bbe",
          "transactionIndex": "0x0",
          "logIndex": "0x0",
          "removed": false
        },
        {
          "address": "0xd00ae08403B9bbb9124bB305C09058E32C39A48c",
          "topics": [
            "0xddf252ad1be2c89b69c2b068fc378daa952ba7f163c4a11628f55a4df523b3ef",
            "0x000000000000000000000000f694e193200268f9a4868e4aa017a0118c9a8177",
            "0x000000000000000000000000ca2c3196047fe0e31547b7214e5b7c49413fe9a8"
          ],
          "data": "0x000000000000000000000000000000000000000000000000001a74b0284e75e2",
          "blockHash": "0xb06bee2d883d7e0f07b46d358f93e8742b81221a3ccc031e6463fb095e82ca7c",
          "blockNumber": "0x1c58fe6",
          "transactionHash": "0xfd6ba20bee875786474bb696d55fccf5ca0bab01c9490a4b0c10a2e190d49bbe",
          "transactionIndex": "0x0",
          "logIndex": "0x1",
          "removed": false
        },
        {
          "address": "0xcA2C3196047FE0E31547B7214E5B7c49413fE9a8",
          "topics": [
            "0xd0c3c799bf9e2639de44391e7f524d229b2b55f5b1ea94b2bf7da42f7243dddd"
          ],
          "data": "0x0000000000000000000000000000000000000000000000000000000000000020000000000000000000000000000000000000000000000000ccf0a31a221f3c9b000000000000000000000000c55d1f988f22df864eaa4e9940a0a340e1e06ccd00000000000000000000000079f21d75dd65a42e6083d5117174b1704b804bd800000000000000000000000000000000000000000000000000000000000019f60000000000000000000000000000000000000000000000000000000000030d4000000000000000000000000000000000000000000000000000000000000000000000000000000000000000000000000000000000000000000000000000000001000000000000000000000000d00ae08403b9bbb9124bb305c09058e32c39a48c000000000000000000000000000000000000000000000000001a74b0284e75e200000000000000000000000000000000000000000000000000000000000001a0000000000000000000000000000000000000000000000000000000000000020000000000000000000000000000000000000000000000000000000000000002209d0a6947399e9e613ab377d0b21881c339f3c1897afa92e9c24a99f975c9660600000000000000000000000000000000000000000000000000000000000000246a62784200000000000000000000000079f21d75dd65a42e6083d5117174b1704b804bd80000000000000000000000000000000000000000000000000000000000000000000000000000000000000000000000000000000000000000000000000000000000000000000000000000000000000000000000000000000000000000",
          "blockHash": "0xb06bee2d883d7e0f07b46d358f93e8742b81221a3ccc031e6463fb095e82ca7c",
          "blockNumber": "0x1c58fe6",
          "transactionHash": "0xfd6ba20bee875786474bb696d55fccf5ca0bab01c9490a4b0c10a2e190d49bbe",
          "transactionIndex": "0x0",
          "logIndex": "0x2",
          "removed": false
        },
        {
          "address": "0xc55D1F988F22DF864eaa4E9940a0a340e1e06CcD",
          "topics": [
            "0x37962d07fa512169a5eaf84d1e470db32a089f0416d0553c33672c1604ec1b68",
            "0x9d0a6947399e9e613ab377d0b21881c339f3c1897afa92e9c24a99f975c96606",
            "0x000000000000000000000000000000000000000000000000adecc60412ce25a5"
          ],
          "data": "0x",
          "blockHash": "0xb06bee2d883d7e0f07b46d358f93e8742b81221a3ccc031e6463fb095e82ca7c",
          "blockNumber": "0x1c58fe6",
          "transactionHash": "0xfd6ba20bee875786474bb696d55fccf5ca0bab01c9490a4b0c10a2e190d49bbe",
          "transactionIndex": "0x0",
          "logIndex": "0x3",
          "removed": false
        }
      ],
      "status": "0x1",
      "logsBloom": "0x00000000000000000001000000000000000000000800040000000000000000000000000000000000000000000000000000000000000000000000000000000000000000000000008000040008000800010000000000000000080000008000000000000020000000000000000000002000000000000020000000000010000000000000000000200400010000000020000000000001000000000000000000000000000000000000000400000000204000000080000000000000000100000000000000000002000000000000000000001000000000000000000000000000000400000000040000000000080000000000000004000200000000400000000000000000",
      "type": "0x2",
      "effectiveGasPrice": "0x684ee1800"
    }
  ],
  "libraries": [],
  "pending": [],
  "returns": {},
  "timestamp": 1707028504,
  "chain": 43113,
  "multi": false,
  "commit": "b25edcf"
}