{
  "transactions": [
    {
      "hash": "0xdc43a6d7060cd921fd40913b5f06bf77b87d196f064df7565aa173154ef59c9e",
      "transactionType": "CALL",
      "contractName": null,
      "contractAddress": "0x42a2e75D17c1Fb6Ee7Eb09631B855A5ecE4c9cFa",
      "function": "mint(uint64,address,uint8)",
      "arguments": [
        "12532609583862916517",
        "0x79f21D75Dd65a42E6083d5117174b1704B804BD8",
        "0"
      ],
      "transaction": {
        "type": "0x02",
        "from": "0x79f21d75dd65a42e6083d5117174b1704b804bd8",
        "to": "0x42a2e75d17c1fb6ee7eb09631b855a5ece4c9cfa",
        "gas": "0x35b20",
        "value": "0x0",
        "data": "0xec99afa2000000000000000000000000000000000000000000000000adecc60412ce25a500000000000000000000000079f21d75dd65a42e6083d5117174b1704b804bd80000000000000000000000000000000000000000000000000000000000000000",
        "nonce": "0x2",
        "accessList": []
      },
      "additionalContracts": [],
      "isFixedGasLimit": false
    }
  ],
  "receipts": [
    {
      "transactionHash": "0xdc43a6d7060cd921fd40913b5f06bf77b87d196f064df7565aa173154ef59c9e",
      "transactionIndex": "0x0",
      "blockHash": "0x9691daa9309e270ba6555ff34a55227fbdcc0429e409908b675c659eb199e989",
      "blockNumber": "0x1c58ee4",
      "from": "0x79f21D75Dd65a42E6083d5117174b1704B804BD8",
      "to": "0x42a2e75D17c1Fb6Ee7Eb09631B855A5ecE4c9cFa",
      "cumulativeGasUsed": "0x2bbbb",
      "gasUsed": "0x2bbbb",
      "contractAddress": null,
      "logs": [
        {
          "address": "0xd00ae08403B9bbb9124bB305C09058E32C39A48c",
          "topics": [
            "0xe1fffcc4923d04b559f4d29a8bfc6cda04eb5b0d3c460751c2402c5c5cc9109c",
            "0x000000000000000000000000f694e193200268f9a4868e4aa017a0118c9a8177"
          ],
          "data": "0x000000000000000000000000000000000000000000000000001c5165f4a55366",
          "blockHash": "0x9691daa9309e270ba6555ff34a55227fbdcc0429e409908b675c659eb199e989",
          "blockNumber": "0x1c58ee4",
          "transactionHash": "0xdc43a6d7060cd921fd40913b5f06bf77b87d196f064df7565aa173154ef59c9e",
          "transactionIndex": "0x0",
          "logIndex": "0x0",
          "removed": false
        },
        {
          "address": "0xd00ae08403B9bbb9124bB305C09058E32C39A48c",
          "topics": [
            "0xddf252ad1be2c89b69c2b068fc378daa952ba7f163c4a11628f55a4df523b3ef",
            "0x000000000000000000000000f694e193200268f9a4868e4aa017a0118c9a8177",
            "0x000000000000000000000000ca2c3196047fe0e31547b7214e5b7c49413fe9a8"
          ],
          "data": "0x000000000000000000000000000000000000000000000000001c5165f4a55366",
          "blockHash": "0x9691daa9309e270ba6555ff34a55227fbdcc0429e409908b675c659eb199e989",
          "blockNumber": "0x1c58ee4",
          "transactionHash": "0xdc43a6d7060cd921fd40913b5f06bf77b87d196f064df7565aa173154ef59c9e",
          "transactionIndex": "0x0",
          "logIndex": "0x1",
          "removed": false
        },
        {
          "address": "0xcA2C3196047FE0E31547B7214E5B7c49413fE9a8",
          "topics": [
            "0xd0c3c799bf9e2639de44391e7f524d229b2b55f5b1ea94b2bf7da42f7243dddd"
          ],
          "data": "0x0000000000000000000000000000000000000000000000000000000000000020000000000000000000000000000000000000000000000000ccf0a31a221f3c9b00000000000000000000000042a2e75d17c1fb6ee7eb09631b855a5ece4c9cfa00000000000000000000000079f21d75dd65a42e6083d5117174b1704b804bd800000000000000000000000000000000000000000000000000000000000019f00000000000000000000000000000000000000000000000000000000000030d4000000000000000000000000000000000000000000000000000000000000000000000000000000000000000000000000000000000000000000000000000000001000000000000000000000000d00ae08403b9bbb9124bb305c09058e32c39a48c000000000000000000000000000000000000000000000000001c5165f4a5536600000000000000000000000000000000000000000000000000000000000001a0000000000000000000000000000000000000000000000000000000000000020000000000000000000000000000000000000000000000000000000000000002206c73bd6f57f0b666492496938c9e4684c2b10c1c3eb763ef5963f472f8588e5000000000000000000000000000000000000000000000000000000000000000246a62784200000000000000000000000079f21d75dd65a42e6083d5117174b1704b804bd80000000000000000000000000000000000000000000000000000000000000000000000000000000000000000000000000000000000000000000000000000000000000000000000000000000000000000000000000000000000000000",
          "blockHash": "0x9691daa9309e270ba6555ff34a55227fbdcc0429e409908b675c659eb199e989",
          "blockNumber": "0x1c58ee4",
          "transactionHash": "0xdc43a6d7060cd921fd40913b5f06bf77b87d196f064df7565aa173154ef59c9e",
          "transactionIndex": "0x0",
          "logIndex": "0x2",
          "removed": false
        },
        {
          "address": "0x42a2e75D17c1Fb6Ee7Eb09631B855A5ecE4c9cFa",
          "topics": [
            "0x37962d07fa512169a5eaf84d1e470db32a089f0416d0553c33672c1604ec1b68",
            "0x6c73bd6f57f0b666492496938c9e4684c2b10c1c3eb763ef5963f472f8588e50",
            "0x000000000000000000000000000000000000000000000000adecc60412ce25a5"
          ],
          "data": "0x",
          "blockHash": "0x9691daa9309e270ba6555ff34a55227fbdcc0429e409908b675c659eb199e989",
          "blockNumber": "0x1c58ee4",
          "transactionHash": "0xdc43a6d7060cd921fd40913b5f06bf77b87d196f064df7565aa173154ef59c9e",
          "transactionIndex": "0x0",
          "logIndex": "0x3",
          "removed": false
        }
      ],
      "status": "0x1",
      "logsBloom": "0x00000000000000000001000000000000800000000800040000000000000000000000000000000000000000000000000000000000000000000000000000000000000000040000000000040008000800010000000000000000080000008000000000000000000000000000000000000000000000000020000000000010000000000000000000200400000000000020000001000001004000000000000000000000000000000000000400000000204000000080000000000000000110000000000000000002000000000000000000001000000000000000000000000000000000000000000000400000080000000000000004000200000000400000000000000000",
      "type": "0x2",
      "effectiveGasPrice": "0x684ee1800"
    }
  ],
  "libraries": [],
  "pending": [],
  "returns": {},
  "timestamp": 1707027270,
  "chain": 43113,
  "multi": false,
  "commit": "b25edcf"
}