{
  "transactions": [
    {
      "hash": "0xfdc7f1efb052921a6ad16684b711943495bc1145992a8df031f4e9240bc23e38",
      "transactionType": "CALL",
      "contractName": null,
      "contractAddress": "0x232B510Ea4105ed6B036677c82cfC65d9D209792",
      "function": "mint(uint64,address,uint8)",
      "arguments": [
        "12532609583862916517",
        "0x56964A98b0407BbFCAD796CB2a76d618Bc89Eadc",
        "0"
      ],
      "transaction": {
        "type": "0x02",
        "from": "0x79f21d75dd65a42e6083d5117174b1704b804bd8",
        "to": "0x232b510ea4105ed6b036677c82cfc65d9d209792",
        "gas": "0x38dc5",
        "value": "0x0",
        "data": "0xec99afa2000000000000000000000000000000000000000000000000adecc60412ce25a500000000000000000000000056964a98b0407bbfcad796cb2a76d618bc89eadc0000000000000000000000000000000000000000000000000000000000000000",
        "nonce": "0xa",
        "accessList": []
      },
      "additionalContracts": [],
      "isFixedGasLimit": false
    }
  ],
  "receipts": [
    {
      "transactionHash": "0xfdc7f1efb052921a6ad16684b711943495bc1145992a8df031f4e9240bc23e38",
      "transactionIndex": "0x0",
      "blockHash": "0x181f451aa3324726505daa4ac68fc8a19e1246f84753f04dbc9698a31d6924a8",
      "blockNumber": "0x1c59084",
      "from": "0x79f21D75Dd65a42E6083d5117174b1704B804BD8",
      "to": "0x232B510Ea4105ed6B036677c82cfC65d9D209792",
      "cumulativeGasUsed": "0x2bbcd",
      "gasUsed": "0x2bbcd",
      "contractAddress": null,
      "logs": [
        {
          "address": "0xd00ae08403B9bbb9124bB305C09058E32C39A48c",
          "topics": [
            "0xe1fffcc4923d04b559f4d29a8bfc6cda04eb5b0d3c460751c2402c5c5cc9109c",
            "0x000000000000000000000000f694e193200268f9a4868e4aa017a0118c9a8177"
          ],
          "data": "0x0000000000000000000000000000000000000000000000000017d9dc85ea5f37",
          "blockHash": "0x181f451aa3324726505daa4ac68fc8a19e1246f84753f04dbc9698a31d6924a8",
          "blockNumber": "0x1c59084",
          "transactionHash": "0xfdc7f1efb052921a6ad16684b711943495bc1145992a8df031f4e9240bc23e38",
          "transactionIndex": "0x0",
          "logIndex": "0x0",
          "removed": false
        },
        {
          "address": "0xd00ae08403B9bbb9124bB305C09058E32C39A48c",
          "topics": [
            "0xddf252ad1be2c89b69c2b068fc378daa952ba7f163c4a11628f55a4df523b3ef",
            "0x000000000000000000000000f694e193200268f9a4868e4aa017a0118c9a8177",
            "0x000000000000000000000000ca2c3196047fe0e31547b7214e5b7c49413fe9a8"
          ],
          "data": "0x0000000000000000000000000000000000000000000000000017d9dc85ea5f37",
          "blockHash": "0x181f451aa3324726505daa4ac68fc8a19e1246f84753f04dbc9698a31d6924a8",
          "blockNumber": "0x1c59084",
          "transactionHash": "0xfdc7f1efb052921a6ad16684b711943495bc1145992a8df031f4e9240bc23e38",
          "transactionIndex": "0x0",
          "logIndex": "0x1",
          "removed": false
        },
        {
          "address": "0xcA2C3196047FE0E31547B7214E5B7c49413fE9a8",
          "topics": [
            "0xd0c3c799bf9e2639de44391e7f524d229b2b55f5b1ea94b2bf7da42f7243dddd"
          ],
          "data": "0x0000000000000000000000000000000000000000000000000000000000000020000000000000000000000000000000000000000000000000ccf0a31a221f3c9b000000000000000000000000232b510ea4105ed6b036677c82cfc65d9d20979200000000000000000000000056964a98b0407bbfcad796cb2a76d618bc89eadc00000000000000000000000000000000000000000000000000000000000019f80000000000000000000000000000000000000000000000000000000000030d4000000000000000000000000000000000000000000000000000000000000000000000000000000000000000000000000000000000000000000000000000000001000000000000000000000000d00ae08403b9bbb9124bb305c09058e32c39a48c0000000000000000000000000000000000000000000000000017d9dc85ea5f3700000000000000000000000000000000000000000000000000000000000001a000000000000000000000000000000000000000000000000000000000000002000000000000000000000000000000000000000000000000000000000000000220feab8bddf6e85bf45580b6b64edb887e3025688b5f697a41f34c0926dc65741400000000000000000000000000000000000000000000000000000000000000246a62784200000000000000000000000079f21d75dd65a42e6083d5117174b1704b804bd80000000000000000000000000000000000000000000000000000000000000000000000000000000000000000000000000000000000000000000000000000000000000000000000000000000000000000000000000000000000000000",
          "blockHash": "0x181f451aa3324726505daa4ac68fc8a19e1246f84753f04dbc9698a31d6924a8",
          "blockNumber": "0x1c59084",
          "transactionHash": "0xfdc7f1efb052921a6ad16684b711943495bc1145992a8df031f4e9240bc23e38",
          "transactionIndex": "0x0",
          "logIndex": "0x2",
          "removed": false
        },
        {
          "address": "0x232B510Ea4105ed6B036677c82cfC65d9D209792",
          "topics": [
            "0x37962d07fa512169a5eaf84d1e470db32a089f0416d0553c33672c1604ec1b68",
            "0xfeab8bddf6e85bf45580b6b64edb887e3025688b5f697a41f34c0926dc657414",
            "0x000000000000000000000000000000000000000000000000adecc60412ce25a5"
          ],
          "data": "0x",
          "blockHash": "0x181f451aa3324726505daa4ac68fc8a19e1246f84753f04dbc9698a31d6924a8",
          "blockNumber": "0x1c59084",
          "transactionHash": "0xfdc7f1efb052921a6ad16684b711943495bc1145992a8df031f4e9240bc23e38",
          "transactionIndex": "0x0",
          "logIndex": "0x3",
          "removed": false
        }
      ],
      "status": "0x1",
      "logsBloom": "0x00000000000000000001000000000000000000000800040000000000000000000000002000000000000000000000000000000000000000000000000000000000000000000000000000040008000801010000000000000000080000008000000000000000000000000000000000000000000000000020000000000010000000040000000000200400000000000020000000000001000000000000000000000002000000000000000400000000204000000080000000000000000100000000800000000002000000000000000000001000000000000000000000000000000000000000008000000000080000000000000004000200000000400000000000000000",
      "type": "0x2",
      "effectiveGasPrice": "0x684ee1800"
    }
  ],
  "libraries": [],
  "pending": [],
  "returns": {},
  "timestamp": 1707029158,
  "chain": 43113,
  "multi": false,
  "commit": "b25edcf"
}